{
  "abi": [
    {
      "type": "constructor",
      "inputs": [
        {
          "name": "_l2Oracle",
          "type": "address",
          "internalType": "contract L2OutputOracle"
        },
        {
          "name": "_systemConfig",
          "type": "address",
          "internalType": "contract SystemConfig"
        }
      ],
      "stateMutability": "nonpayable"
    },
    {
      "type": "receive",
      "stateMutability": "payable"
    },
    {
      "type": "function",
      "name": "GUARDIAN",
      "inputs": [],
      "outputs": [
        {
          "name": "",
          "type": "address",
          "internalType": "address"
        }
      ],
      "stateMutability": "view"
    },
    {
      "type": "function",
      "name": "L2_ORACLE",
      "inputs": [],
      "outputs": [
        {
          "name": "",
          "type": "address",
          "internalType": "contract L2OutputOracle"
        }
      ],
      "stateMutability": "view"
    },
    {
      "type": "function",
      "name": "SYSTEM_CONFIG",
      "inputs": [],
      "outputs": [
        {
          "name": "",
          "type": "address",
          "internalType": "contract SystemConfig"
        }
      ],
      "stateMutability": "view"
    },
    {
      "type": "function",
      "name": "depositTransaction",
      "inputs": [
        {
          "name": "_to",
          "type": "address",
          "internalType": "address"
        },
        {
          "name": "_value",
          "type": "uint256",
          "internalType": "uint256"
        },
        {
          "name": "_gasLimit",
          "type": "uint64",
          "internalType": "uint64"
        },
        {
          "name": "_isCreation",
          "type": "bool",
          "internalType": "bool"
        },
        {
          "name": "_data",
          "type": "bytes",
          "internalType": "bytes"
        }
      ],
      "outputs": [],
      "stateMutability": "payable"
    },
    {
      "type": "function",
      "name": "donateETH",
      "inputs": [],
      "outputs": [],
      "stateMutability": "payable"
    },
    {
      "type": "function",
      "name": "finalizeWithdrawalTransaction",
      "inputs": [
        {
          "name": "_tx",
          "type": "tuple",
          "internalType": "struct Types.WithdrawalTransaction",
          "components": [
            {
              "name": "nonce",
              "type": "uint256",
              "internalType": "uint256"
            },
            {
              "name": "sender",
              "type": "address",
              "internalType": "address"
            },
            {
              "name": "target",
              "type": "address",
              "internalType": "address"
            },
            {
              "name": "value",
              "type": "uint256",
              "internalType": "uint256"
            },
            {
              "name": "gasLimit",
              "type": "uint256",
              "internalType": "uint256"
            },
            {
              "name": "data",
              "type": "bytes",
              "internalType": "bytes"
            }
          ]
        }
      ],
      "outputs": [],
      "stateMutability": "nonpayable"
    },
    {
      "type": "function",
      "name": "finalizedWithdrawals",
      "inputs": [
        {
          "name": "",
          "type": "bytes32",
          "internalType": "bytes32"
        }
      ],
      "outputs": [
        {
          "name": "",
          "type": "bool",
          "internalType": "bool"
        }
      ],
      "stateMutability": "view"
    },
    {
      "type": "function",
      "name": "guardian",
      "inputs": [],
      "outputs": [
        {
          "name": "",
          "type": "address",
          "internalType": "address"
        }
      ],
      "stateMutability": "view"
    },
    {
      "type": "function",
      "name": "initialize",
      "inputs": [
        {
          "name": "_superchainConfig",
          "type": "address",
          "internalType": "contract SuperchainConfig"
        }
      ],
      "outputs": [],
      "stateMutability": "nonpayable"
    },
    {
      "type": "function",
      "name": "isOutputFinalized",
      "inputs": [
        {
          "name": "_l2OutputIndex",
          "type": "uint256",
          "internalType": "uint256"
        }
      ],
      "outputs": [
        {
          "name": "",
          "type": "bool",
          "internalType": "bool"
        }
      ],
      "stateMutability": "view"
    },
    {
      "type": "function",
      "name": "l2Oracle",
      "inputs": [],
      "outputs": [
        {
          "name": "",
          "type": "address",
          "internalType": "contract L2OutputOracle"
        }
      ],
      "stateMutability": "view"
    },
    {
      "type": "function",
      "name": "l2Sender",
      "inputs": [],
      "outputs": [
        {
          "name": "",
          "type": "address",
          "internalType": "address"
        }
      ],
      "stateMutability": "view"
    },
    {
      "type": "function",
      "name": "minimumGasLimit",
      "inputs": [
        {
          "name": "_byteCount",
          "type": "uint64",
          "internalType": "uint64"
        }
      ],
      "outputs": [
        {
          "name": "",
          "type": "uint64",
          "internalType": "uint64"
        }
      ],
      "stateMutability": "pure"
    },
    {
      "type": "function",
      "name": "params",
      "inputs": [],
      "outputs": [
        {
          "name": "prevBaseFee",
          "type": "uint128",
          "internalType": "uint128"
        },
        {
          "name": "prevBoughtGas",
          "type": "uint64",
          "internalType": "uint64"
        },
        {
          "name": "prevBlockNum",
          "type": "uint64",
          "internalType": "uint64"
        }
      ],
      "stateMutability": "view"
    },
    {
      "type": "function",
      "name": "paused",
      "inputs": [],
      "outputs": [
        {
          "name": "paused_",
          "type": "bool",
          "internalType": "bool"
        }
      ],
      "stateMutability": "view"
    },
    {
      "type": "function",
      "name": "proveWithdrawalTransaction",
      "inputs": [
        {
          "name": "_tx",
          "type": "tuple",
          "internalType": "struct Types.WithdrawalTransaction",
          "components": [
            {
              "name": "nonce",
              "type": "uint256",
              "internalType": "uint256"
            },
            {
              "name": "sender",
              "type": "address",
              "internalType": "address"
            },
            {
              "name": "target",
              "type": "address",
              "internalType": "address"
            },
            {
              "name": "value",
              "type": "uint256",
              "internalType": "uint256"
            },
            {
              "name": "gasLimit",
              "type": "uint256",
              "internalType": "uint256"
            },
            {
              "name": "data",
              "type": "bytes",
              "internalType": "bytes"
            }
          ]
        },
        {
          "name": "_l2OutputIndex",
          "type": "uint256",
          "internalType": "uint256"
        },
        {
          "name": "_outputRootProof",
          "type": "tuple",
          "internalType": "struct Types.OutputRootProof",
          "components": [
            {
              "name": "version",
              "type": "bytes32",
              "internalType": "bytes32"
            },
            {
              "name": "stateRoot",
              "type": "bytes32",
              "internalType": "bytes32"
            },
            {
              "name": "messagePasserStorageRoot",
              "type": "bytes32",
              "internalType": "bytes32"
            },
            {
              "name": "latestBlockhash",
              "type": "bytes32",
              "internalType": "bytes32"
            }
          ]
        },
        {
          "name": "_withdrawalProof",
          "type": "bytes[]",
          "internalType": "bytes[]"
        }
      ],
      "outputs": [],
      "stateMutability": "nonpayable"
    },
    {
      "type": "function",
      "name": "provenWithdrawals",
      "inputs": [
        {
          "name": "",
          "type": "bytes32",
          "internalType": "bytes32"
        }
      ],
      "outputs": [
        {
          "name": "outputRoot",
          "type": "bytes32",
          "internalType": "bytes32"
        },
        {
          "name": "timestamp",
          "type": "uint128",
          "internalType": "uint128"
        },
        {
          "name": "l2OutputIndex",
          "type": "uint128",
          "internalType": "uint128"
        }
      ],
      "stateMutability": "view"
    },
    {
      "type": "function",
      "name": "superchainConfig",
      "inputs": [],
      "outputs": [
        {
          "name": "",
          "type": "address",
          "internalType": "contract SuperchainConfig"
        }
      ],
      "stateMutability": "view"
    },
    {
      "type": "function",
      "name": "systemConfig",
      "inputs": [],
      "outputs": [
        {
          "name": "",
          "type": "address",
          "internalType": "contract SystemConfig"
        }
      ],
      "stateMutability": "view"
    },
    {
      "type": "function",
      "name": "version",
      "inputs": [],
      "outputs": [
        {
          "name": "",
          "type": "string",
          "internalType": "string"
        }
      ],
      "stateMutability": "view"
    },
    {
      "type": "event",
      "name": "Initialized",
      "inputs": [
        {
          "name": "version",
          "type": "uint8",
          "indexed": false,
          "internalType": "uint8"
        }
      ],
      "anonymous": false
    },
    {
      "type": "event",
      "name": "TransactionDeposited",
      "inputs": [
        {
          "name": "from",
          "type": "address",
          "indexed": true,
          "internalType": "address"
        },
        {
          "name": "to",
          "type": "address",
          "indexed": true,
          "internalType": "address"
        },
        {
          "name": "version",
          "type": "uint256",
          "indexed": true,
          "internalType": "uint256"
        },
        {
          "name": "opaqueData",
          "type": "bytes",
          "indexed": false,
          "internalType": "bytes"
        }
      ],
      "anonymous": false
    },
    {
      "type": "event",
      "name": "WithdrawalFinalized",
      "inputs": [
        {
          "name": "withdrawalHash",
          "type": "bytes32",
          "indexed": true,
          "internalType": "bytes32"
        },
        {
          "name": "success",
          "type": "bool",
          "indexed": false,
          "internalType": "bool"
        }
      ],
      "anonymous": false
    },
    {
      "type": "event",
      "name": "WithdrawalProven",
      "inputs": [
        {
          "name": "withdrawalHash",
          "type": "bytes32",
          "indexed": true,
          "internalType": "bytes32"
        },
        {
          "name": "from",
          "type": "address",
          "indexed": true,
          "internalType": "address"
        },
        {
          "name": "to",
          "type": "address",
          "indexed": true,
          "internalType": "address"
        }
      ],
      "anonymous": false
    }
  ],
  "address": "0xA38651d919720445Fc6E9e6Fa883f726C95BDC2B",
  "args": [
    "0x3F8A862E63E759a77DA22d384027D21BF096bA9E",
    "0x8787D3382F60d4e072b4276BBda065959195dB33"
  ],
  "bytecode": "0x60c06040523480156200001157600080fd5b5060405162005777380380620057778339810160408190526200003491620002ba565b6001600160a01b03808316608052811660a0526200005360006200005b565b5050620002f9565b600054610100900460ff16158080156200007c5750600054600160ff909116105b80620000ac57506200009930620001d360201b62001bcd1760201c565b158015620000ac575060005460ff166001145b620001155760405162461bcd60e51b815260206004820152602e60248201527f496e697469616c697a61626c653a20636f6e747261637420697320616c72656160448201526d191e481a5b9a5d1a585b1a5e995960921b60648201526084015b60405180910390fd5b6000805460ff19166001179055801562000139576000805461ff0019166101001790555b603580546001600160a01b0380851661010002610100600160a81b031990921691909117909155603254166200017e57603280546001600160a01b03191661dead1790555b62000188620001e2565b8015620001cf576000805461ff0019169055604051600181527f7f26b83ff96e1f2b6a682f133852f6798a09c465da95921460cefb38474024989060200160405180910390a15b5050565b6001600160a01b03163b151590565b600054610100900460ff166200024f5760405162461bcd60e51b815260206004820152602b60248201527f496e697469616c697a61626c653a20636f6e7472616374206973206e6f74206960448201526a6e697469616c697a696e6760a81b60648201526084016200010c565b600154600160c01b90046001600160401b03166000036200029f5760408051606081018252633b9aca0080825260006020830152436001600160401b031691909201819052600160c01b02176001555b565b6001600160a01b0381168114620002b757600080fd5b50565b60008060408385031215620002ce57600080fd5b8251620002db81620002a1565b6020840151909250620002ee81620002a1565b809150509250929050565b60805160a0516154196200035e600039600081816101fb01528181610591015261220e0152600081816101a00152818161036501528181610a4601528181610c270152818161102c015281816112d4015281816115460152611fca01526154196000f3fe6080604052600436106101625760003560e01c80638c3152e9116100c0578063c4d66de811610074578063e965084c11610059578063e965084c146104e0578063e9e05c421461056c578063f04987501461057f57600080fd5b8063c4d66de81461041f578063cff0ab961461043f57600080fd5b80639bf62d82116100a55780639bf62d8214610389578063a14238e7146103b6578063a35d99df146103e657600080fd5b80638c3152e9146103365780639b5f694a1461035657600080fd5b806354fd4d50116101175780636dbffb78116100fc5780636dbffb7814610301578063724c184c146103215780638b4c40b01461018757600080fd5b806354fd4d50146102865780635c975abb146102dc57600080fd5b806335e80ab31161014857806335e80ab31461021f578063452a9320146102515780634870496f1461026657600080fd5b80621c2ff61461018e57806333d7e2bd146101ec57600080fd5b36610189576101873334620186a06000604051806020016040528060008152506105b3565b005b600080fd5b34801561019a57600080fd5b506101c27f000000000000000000000000000000000000000000000000000000000000000081565b60405173ffffffffffffffffffffffffffffffffffffffff90911681526020015b60405180910390f35b3480156101f857600080fd5b507f00000000000000000000000000000000000000000000000000000000000000006101c2565b34801561022b57600080fd5b506035546101c290610100900473ffffffffffffffffffffffffffffffffffffffff1681565b34801561025d57600080fd5b506101c261084e565b34801561027257600080fd5b50610187610281366004614a0a565b6108e6565b34801561029257600080fd5b506102cf6040518060400160405280600581526020017f322e342e3000000000000000000000000000000000000000000000000000000081525081565b6040516101e39190614b60565b3480156102e857600080fd5b506102f1610f4e565b60405190151581526020016101e3565b34801561030d57600080fd5b506102f161031c366004614b73565b610fe1565b34801561032d57600080fd5b506101c26110b8565b34801561034257600080fd5b50610187610351366004614b8c565b6110c4565b34801561036257600080fd5b507f00000000000000000000000000000000000000000000000000000000000000006101c2565b34801561039557600080fd5b506032546101c29073ffffffffffffffffffffffffffffffffffffffff1681565b3480156103c257600080fd5b506102f16103d1366004614b73565b60336020526000908152604090205460ff1681565b3480156103f257600080fd5b50610406610401366004614be6565b6119a1565b60405167ffffffffffffffff90911681526020016101e3565b34801561042b57600080fd5b5061018761043a366004614c01565b6119ba565b34801561044b57600080fd5b506001546104a7906fffffffffffffffffffffffffffffffff81169067ffffffffffffffff7001000000000000000000000000000000008204811691780100000000000000000000000000000000000000000000000090041683565b604080516fffffffffffffffffffffffffffffffff909416845267ffffffffffffffff92831660208501529116908201526060016101e3565b3480156104ec57600080fd5b5061053e6104fb366004614b73565b603460205260009081526040902080546001909101546fffffffffffffffffffffffffffffffff8082169170010000000000000000000000000000000090041683565b604080519384526fffffffffffffffffffffffffffffffff92831660208501529116908201526060016101e3565b61018761057a366004614c2c565b6105b3565b34801561058b57600080fd5b506101c27f000000000000000000000000000000000000000000000000000000000000000081565b8260005a9050831561066a5773ffffffffffffffffffffffffffffffffffffffff87161561066a57604080517f08c379a00000000000000000000000000000000000000000000000000000000081526020600482015260248101919091527f4f7074696d69736d506f7274616c3a206d7573742073656e6420746f2061646460448201527f72657373283029207768656e206372656174696e67206120636f6e747261637460648201526084015b60405180910390fd5b61067483516119a1565b67ffffffffffffffff168567ffffffffffffffff161015610717576040517f08c379a000000000000000000000000000000000000000000000000000000000815260206004820152602360248201527f4f7074696d69736d506f7274616c3a20676173206c696d697420746f6f20736d60448201527f616c6c00000000000000000000000000000000000000000000000000000000006064820152608401610661565b6201d4c083511115610785576040517f08c379a000000000000000000000000000000000000000000000000000000000815260206004820152601e60248201527f4f7074696d69736d506f7274616c3a206461746120746f6f206c6172676500006044820152606401610661565b333281146107a6575033731111000000000000000000000000000000001111015b600034888888886040516020016107c1959493929190614ca9565b604051602081830303815290604052905060008973ffffffffffffffffffffffffffffffffffffffff168373ffffffffffffffffffffffffffffffffffffffff167fb3813568d9991fc951961fcb4c784893574240a28925604d09fc577c55bb7c32846040516108319190614b60565b60405180910390a450506108458282611be9565b50505050505050565b6000603560019054906101000a900473ffffffffffffffffffffffffffffffffffffffff1673ffffffffffffffffffffffffffffffffffffffff1663452a93206040518163ffffffff1660e01b8152600401602060405180830381865afa1580156108bd573d6000803e3d6000fd5b505050506040513d601f19601f820116820180604052508101906108e19190614d0e565b905090565b6108ee610f4e565b15610955576040517f08c379a000000000000000000000000000000000000000000000000000000000815260206004820152601660248201527f4f7074696d69736d506f7274616c3a20706175736564000000000000000000006044820152606401610661565b3073ffffffffffffffffffffffffffffffffffffffff16856040015173ffffffffffffffffffffffffffffffffffffffff1603610a14576040517f08c379a000000000000000000000000000000000000000000000000000000000815260206004820152603f60248201527f4f7074696d69736d506f7274616c3a20796f752063616e6e6f742073656e642060448201527f6d6573736167657320746f2074686520706f7274616c20636f6e7472616374006064820152608401610661565b6040517fa25ae557000000000000000000000000000000000000000000000000000000008152600481018590526000907f000000000000000000000000000000000000000000000000000000000000000073ffffffffffffffffffffffffffffffffffffffff169063a25ae55790602401606060405180830381865afa158015610aa2573d6000803e3d6000fd5b505050506040513d601f19601f82011682018060405250810190610ac69190614d4b565b519050610ae0610adb36869003860186614db0565b611f16565b8114610b6e576040517f08c379a000000000000000000000000000000000000000000000000000000000815260206004820152602960248201527f4f7074696d69736d506f7274616c3a20696e76616c6964206f7574707574207260448201527f6f6f742070726f6f6600000000000000000000000000000000000000000000006064820152608401610661565b6000610b7987611f72565b6000818152603460209081526040918290208251606081018452815481526001909101546fffffffffffffffffffffffffffffffff8082169383018490527001000000000000000000000000000000009091041692810192909252919250901580610cab5750805160408083015190517fa25ae5570000000000000000000000000000000000000000000000000000000081526fffffffffffffffffffffffffffffffff90911660048201527f000000000000000000000000000000000000000000000000000000000000000073ffffffffffffffffffffffffffffffffffffffff169063a25ae55790602401606060405180830381865afa158015610c83573d6000803e3d6000fd5b505050506040513d601f19601f82011682018060405250810190610ca79190614d4b565b5114155b610d37576040517f08c379a000000000000000000000000000000000000000000000000000000000815260206004820152603760248201527f4f7074696d69736d506f7274616c3a207769746864726177616c20686173682060448201527f68617320616c7265616479206265656e2070726f76656e0000000000000000006064820152608401610661565b60408051602081018490526000918101829052606001604080517fffffffffffffffffffffffffffffffffffffffffffffffffffffffffffffffe081840301815282825280516020918201209083018190529250610e009101604080517fffffffffffffffffffffffffffffffffffffffffffffffffffffffffffffffe0818403018152828201909152600182527f0100000000000000000000000000000000000000000000000000000000000000602083015290610df6888a614e16565b8a60400135611fa2565b610e8c576040517f08c379a000000000000000000000000000000000000000000000000000000000815260206004820152603260248201527f4f7074696d69736d506f7274616c3a20696e76616c696420776974686472617760448201527f616c20696e636c7573696f6e2070726f6f6600000000000000000000000000006064820152608401610661565b604080516060810182528581526fffffffffffffffffffffffffffffffff42811660208084019182528c831684860190815260008981526034835286812095518655925190518416700100000000000000000000000000000000029316929092176001909301929092558b830151908c0151925173ffffffffffffffffffffffffffffffffffffffff918216939091169186917f67a6208cfcc0801d50f6cbe764733f4fddf66ac0b04442061a8a8c0cb6b63f629190a4505050505050505050565b6000603560019054906101000a900473ffffffffffffffffffffffffffffffffffffffff1673ffffffffffffffffffffffffffffffffffffffff16635c975abb6040518163ffffffff1660e01b8152600401602060405180830381865afa158015610fbd573d6000803e3d6000fd5b505050506040513d601f19601f820116820180604052508101906108e19190614e9a565b6040517fa25ae557000000000000000000000000000000000000000000000000000000008152600481018290526000906110b29073ffffffffffffffffffffffffffffffffffffffff7f0000000000000000000000000000000000000000000000000000000000000000169063a25ae55790602401606060405180830381865afa158015611073573d6000803e3d6000fd5b505050506040513d601f19601f820116820180604052508101906110979190614d4b565b602001516fffffffffffffffffffffffffffffffff16611fc6565b92915050565b60006108e161084e565b565b6110cc610f4e565b15611133576040517f08c379a000000000000000000000000000000000000000000000000000000000815260206004820152601660248201527f4f7074696d69736d506f7274616c3a20706175736564000000000000000000006044820152606401610661565b60325473ffffffffffffffffffffffffffffffffffffffff1661dead146111dc576040517f08c379a000000000000000000000000000000000000000000000000000000000815260206004820152603f60248201527f4f7074696d69736d506f7274616c3a2063616e206f6e6c79207472696767657260448201527f206f6e65207769746864726177616c20706572207472616e73616374696f6e006064820152608401610661565b60006111e782611f72565b60008181526034602090815260408083208151606081018352815481526001909101546fffffffffffffffffffffffffffffffff808216948301859052700100000000000000000000000000000000909104169181019190915292935090036112d2576040517f08c379a000000000000000000000000000000000000000000000000000000000815260206004820152603260248201527f4f7074696d69736d506f7274616c3a207769746864726177616c20686173206e60448201527f6f74206265656e2070726f76656e2079657400000000000000000000000000006064820152608401610661565b7f000000000000000000000000000000000000000000000000000000000000000073ffffffffffffffffffffffffffffffffffffffff1663887862726040518163ffffffff1660e01b8152600401602060405180830381865afa15801561133d573d6000803e3d6000fd5b505050506040513d601f19601f820116820180604052508101906113619190614eb7565b81602001516fffffffffffffffffffffffffffffffff16101561142c576040517f08c379a000000000000000000000000000000000000000000000000000000000815260206004820152604b60248201527f4f7074696d69736d506f7274616c3a207769746864726177616c2074696d657360448201527f74616d70206c657373207468616e204c32204f7261636c65207374617274696e60648201527f672074696d657374616d70000000000000000000000000000000000000000000608482015260a401610661565b61144b81602001516fffffffffffffffffffffffffffffffff16611fc6565b6114fd576040517f08c379a000000000000000000000000000000000000000000000000000000000815260206004820152604560248201527f4f7074696d69736d506f7274616c3a2070726f76656e2077697468647261776160448201527f6c2066696e616c697a6174696f6e20706572696f6420686173206e6f7420656c60648201527f6170736564000000000000000000000000000000000000000000000000000000608482015260a401610661565b60408181015190517fa25ae5570000000000000000000000000000000000000000000000000000000081526fffffffffffffffffffffffffffffffff90911660048201526000907f000000000000000000000000000000000000000000000000000000000000000073ffffffffffffffffffffffffffffffffffffffff169063a25ae55790602401606060405180830381865afa1580156115a2573d6000803e3d6000fd5b505050506040513d601f19601f820116820180604052508101906115c69190614d4b565b8251815191925014611680576040517f08c379a000000000000000000000000000000000000000000000000000000000815260206004820152604960248201527f4f7074696d69736d506f7274616c3a206f757470757420726f6f742070726f7660448201527f656e206973206e6f74207468652073616d652061732063757272656e74206f7560648201527f7470757420726f6f740000000000000000000000000000000000000000000000608482015260a401610661565b61169f81602001516fffffffffffffffffffffffffffffffff16611fc6565b611751576040517f08c379a000000000000000000000000000000000000000000000000000000000815260206004820152604360248201527f4f7074696d69736d506f7274616c3a206f75747075742070726f706f73616c2060448201527f66696e616c697a6174696f6e20706572696f6420686173206e6f7420656c617060648201527f7365640000000000000000000000000000000000000000000000000000000000608482015260a401610661565b60008381526033602052604090205460ff16156117f0576040517f08c379a000000000000000000000000000000000000000000000000000000000815260206004820152603560248201527f4f7074696d69736d506f7274616c3a207769746864726177616c20686173206160448201527f6c7265616479206265656e2066696e616c697a656400000000000000000000006064820152608401610661565b600083815260336020908152604080832080547fffffffffffffffffffffffffffffffffffffffffffffffffffffffffffffff00166001179055908601516032805473ffffffffffffffffffffffffffffffffffffffff9092167fffffffffffffffffffffffff00000000000000000000000000000000000000009092169190911790558501516080860151606087015160a088015161189293929190612069565b603280547fffffffffffffffffffffffff00000000000000000000000000000000000000001661dead17905560405190915084907fdb5c7652857aa163daadd670e116628fb42e869d8ac4251ef8971d9e5727df1b906118f790841515815260200190565b60405180910390a28015801561190d5750326001145b1561199a576040517f08c379a000000000000000000000000000000000000000000000000000000000815260206004820152602160248201527f4f7074696d69736d506f7274616c3a207769746864726177616c206661696c6560448201527f64000000000000000000000000000000000000000000000000000000000000006064820152608401610661565b5050505050565b60006119ae826010614eff565b6110b290615208614f2f565b600054610100900460ff16158080156119da5750600054600160ff909116105b806119f45750303b1580156119f4575060005460ff166001145b611a80576040517f08c379a000000000000000000000000000000000000000000000000000000000815260206004820152602e60248201527f496e697469616c697a61626c653a20636f6e747261637420697320616c72656160448201527f647920696e697469616c697a65640000000000000000000000000000000000006064820152608401610661565b600080547fffffffffffffffffffffffffffffffffffffffffffffffffffffffffffffff001660011790558015611ade57600080547fffffffffffffffffffffffffffffffffffffffffffffffffffffffffffff00ff166101001790555b6035805473ffffffffffffffffffffffffffffffffffffffff808516610100027fffffffffffffffffffffff0000000000000000000000000000000000000000ff9092169190911790915560325416611b5e57603280547fffffffffffffffffffffffff00000000000000000000000000000000000000001661dead1790555b611b666120c7565b8015611bc957600080547fffffffffffffffffffffffffffffffffffffffffffffffffffffffffffff00ff169055604051600181527f7f26b83ff96e1f2b6a682f133852f6798a09c465da95921460cefb38474024989060200160405180910390a15b5050565b73ffffffffffffffffffffffffffffffffffffffff163b151590565b600154600090611c1f907801000000000000000000000000000000000000000000000000900467ffffffffffffffff1643614f5b565b90506000611c2b6121da565b90506000816020015160ff16826000015163ffffffff16611c4c9190614fa1565b90508215611d8357600154600090611c83908390700100000000000000000000000000000000900467ffffffffffffffff16615009565b90506000836040015160ff1683611c9a919061507d565b600154611cba9084906fffffffffffffffffffffffffffffffff1661507d565b611cc49190614fa1565b600154909150600090611d1590611cee9084906fffffffffffffffffffffffffffffffff16615139565b866060015163ffffffff168760a001516fffffffffffffffffffffffffffffffff1661229b565b90506001861115611d4457611d41611cee82876040015160ff1660018a611d3c9190614f5b565b6122ba565b90505b6fffffffffffffffffffffffffffffffff16780100000000000000000000000000000000000000000000000067ffffffffffffffff4316021760015550505b60018054869190601090611db6908490700100000000000000000000000000000000900467ffffffffffffffff16614f2f565b92506101000a81548167ffffffffffffffff021916908367ffffffffffffffff160217905550816000015163ffffffff16600160000160109054906101000a900467ffffffffffffffff1667ffffffffffffffff161315611e99576040517f08c379a000000000000000000000000000000000000000000000000000000000815260206004820152603e60248201527f5265736f757263654d65746572696e673a2063616e6e6f7420627579206d6f7260448201527f6520676173207468616e20617661696c61626c6520676173206c696d697400006064820152608401610661565b600154600090611ec5906fffffffffffffffffffffffffffffffff1667ffffffffffffffff88166151ad565b90506000611ed748633b9aca0061230f565b611ee190836151ea565b905060005a611ef09088614f5b565b905080821115611f0c57611f0c611f078284614f5b565b612326565b5050505050505050565b60008160000151826020015183604001518460600151604051602001611f55949392919093845260208401929092526040830152606082015260800190565b604051602081830303815290604052805190602001209050919050565b80516020808301516040808501516060860151608087015160a08801519351600097611f559790969591016151fe565b600080611fae86612354565b9050611fbc81868686612386565b9695505050505050565b60007f000000000000000000000000000000000000000000000000000000000000000073ffffffffffffffffffffffffffffffffffffffff1663f4daa2916040518163ffffffff1660e01b8152600401602060405180830381865afa158015612033573d6000803e3d6000fd5b505050506040513d601f19601f820116820180604052508101906120579190614eb7565b6120619083615255565b421192915050565b60008060006120798660006123b6565b9050806120af576308c379a06000526020805278185361666543616c6c3a204e6f7420656e6f756768206761736058526064601cfd5b600080855160208701888b5af1979650505050505050565b600054610100900460ff1661215e576040517f08c379a000000000000000000000000000000000000000000000000000000000815260206004820152602b60248201527f496e697469616c697a61626c653a20636f6e7472616374206973206e6f74206960448201527f6e697469616c697a696e670000000000000000000000000000000000000000006064820152608401610661565b6001547801000000000000000000000000000000000000000000000000900467ffffffffffffffff166000036110c25760408051606081018252633b9aca00808252600060208301524367ffffffffffffffff169190920181905278010000000000000000000000000000000000000000000000000217600155565b6040805160c081018252600080825260208201819052918101829052606081018290526080810182905260a08101919091527f000000000000000000000000000000000000000000000000000000000000000073ffffffffffffffffffffffffffffffffffffffff1663cc731b026040518163ffffffff1660e01b815260040160c060405180830381865afa158015612277573d6000803e3d6000fd5b505050506040513d601f19601f820116820180604052508101906108e19190615292565b60006122b06122aa85856123d4565b836123e4565b90505b9392505050565b6000670de0b6b3a76400006122fb6122d28583614fa1565b6122e490670de0b6b3a7640000615009565b6122f685670de0b6b3a764000061507d565b6123f3565b612305908661507d565b6122b09190614fa1565b60008183101561231f57816122b3565b5090919050565b6000805a90505b825a6123399083614f5b565b101561234f5761234882615331565b915061232d565b505050565b6060818051906020012060405160200161237091815260200190565b6040516020818303038152906040529050919050565b60006123ad84612397878686612424565b8051602091820120825192909101919091201490565b95945050505050565b600080603f83619c4001026040850201603f5a021015949350505050565b60008183121561231f57816122b3565b600081831261231f57816122b3565b60006122b3670de0b6b3a76400008361240b86612ea2565b612415919061507d565b61241f9190614fa1565b6130e6565b60606000845111612491576040517f08c379a000000000000000000000000000000000000000000000000000000000815260206004820152601560248201527f4d65726b6c65547269653a20656d707479206b657900000000000000000000006044820152606401610661565b600061249c84613325565b905060006124a986613411565b90506000846040516020016124c091815260200190565b60405160208183030381529060405290506000805b8451811015612e195760008582815181106124f2576124f2615369565b60200260200101519050845183111561258d576040517f08c379a000000000000000000000000000000000000000000000000000000000815260206004820152602e60248201527f4d65726b6c65547269653a206b657920696e646578206578636565647320746f60448201527f74616c206b6579206c656e6774680000000000000000000000000000000000006064820152608401610661565b8260000361264657805180516020918201206040516125db926125b592910190815260200190565b604051602081830303815290604052858051602091820120825192909101919091201490565b612641576040517f08c379a000000000000000000000000000000000000000000000000000000000815260206004820152601d60248201527f4d65726b6c65547269653a20696e76616c696420726f6f7420686173680000006044820152606401610661565b61279d565b8051516020116126fc5780518051602091820120604051612670926125b592910190815260200190565b612641576040517f08c379a000000000000000000000000000000000000000000000000000000000815260206004820152602760248201527f4d65726b6c65547269653a20696e76616c6964206c6172676520696e7465726e60448201527f616c2068617368000000000000000000000000000000000000000000000000006064820152608401610661565b80518451602080870191909120825191909201201461279d576040517f08c379a000000000000000000000000000000000000000000000000000000000815260206004820152602660248201527f4d65726b6c65547269653a20696e76616c696420696e7465726e616c206e6f6460448201527f65206861736800000000000000000000000000000000000000000000000000006064820152608401610661565b6127a960106001615255565b81602001515103612985578451830361291d576127e381602001516010815181106127d6576127d6615369565b6020026020010151613474565b96506000875111612876576040517f08c379a000000000000000000000000000000000000000000000000000000000815260206004820152603b60248201527f4d65726b6c65547269653a2076616c7565206c656e677468206d75737420626560448201527f2067726561746572207468616e207a65726f20286272616e63682900000000006064820152608401610661565b600186516128849190614f5b565b8214612912576040517f08c379a000000000000000000000000000000000000000000000000000000000815260206004820152603a60248201527f4d65726b6c65547269653a2076616c7565206e6f6465206d757374206265206c60448201527f617374206e6f646520696e2070726f6f6620286272616e6368290000000000006064820152608401610661565b5050505050506122b3565b600085848151811061293157612931615369565b602001015160f81c60f81b60f81c9050600082602001518260ff168151811061295c5761295c615369565b6020026020010151905061296f816135d4565b955061297c600186615255565b94505050612e06565b600281602001515103612d7e57600061299d826135f9565b90506000816000815181106129b4576129b4615369565b016020015160f81c905060006129cb600283615398565b6129d69060026153ba565b905060006129e7848360ff1661361d565b905060006129f58a8961361d565b90506000612a038383613653565b905080835114612a95576040517f08c379a000000000000000000000000000000000000000000000000000000000815260206004820152603a60248201527f4d65726b6c65547269653a20706174682072656d61696e646572206d7573742060448201527f736861726520616c6c206e6962626c65732077697468206b65790000000000006064820152608401610661565b60ff851660021480612aaa575060ff85166003145b15612c995780825114612b3f576040517f08c379a000000000000000000000000000000000000000000000000000000000815260206004820152603d60248201527f4d65726b6c65547269653a206b65792072656d61696e646572206d757374206260448201527f65206964656e746963616c20746f20706174682072656d61696e6465720000006064820152608401610661565b612b5987602001516001815181106127d6576127d6615369565b9c5060008d5111612bec576040517f08c379a000000000000000000000000000000000000000000000000000000000815260206004820152603960248201527f4d65726b6c65547269653a2076616c7565206c656e677468206d75737420626560448201527f2067726561746572207468616e207a65726f20286c65616629000000000000006064820152608401610661565b60018c51612bfa9190614f5b565b8814612c88576040517f08c379a000000000000000000000000000000000000000000000000000000000815260206004820152603860248201527f4d65726b6c65547269653a2076616c7565206e6f6465206d757374206265206c60448201527f617374206e6f646520696e2070726f6f6620286c6561662900000000000000006064820152608401610661565b5050505050505050505050506122b3565b60ff85161580612cac575060ff85166001145b15612ceb57612cd88760200151600181518110612ccb57612ccb615369565b60200260200101516135d4565b9950612ce4818a615255565b9850612d73565b6040517f08c379a000000000000000000000000000000000000000000000000000000000815260206004820152603260248201527f4d65726b6c65547269653a2072656365697665642061206e6f6465207769746860448201527f20616e20756e6b6e6f776e2070726566697800000000000000000000000000006064820152608401610661565b505050505050612e06565b6040517f08c379a000000000000000000000000000000000000000000000000000000000815260206004820152602860248201527f4d65726b6c65547269653a20726563656976656420616e20756e70617273656160448201527f626c65206e6f64650000000000000000000000000000000000000000000000006064820152608401610661565b5080612e1181615331565b9150506124d5565b506040517f08c379a000000000000000000000000000000000000000000000000000000000815260206004820152602560248201527f4d65726b6c65547269653a2072616e206f7574206f662070726f6f6620656c6560448201527f6d656e74730000000000000000000000000000000000000000000000000000006064820152608401610661565b6000808213612f0d576040517f08c379a000000000000000000000000000000000000000000000000000000000815260206004820152600960248201527f554e444546494e454400000000000000000000000000000000000000000000006044820152606401610661565b60006060612f1a84613707565b03609f8181039490941b90931c6c465772b2bbbb5f824b15207a3081018102606090811d6d0388eaa27412d5aca026815d636e018202811d6d0df99ac502031bf953eff472fdcc018202811d6d13cdffb29d51d99322bdff5f2211018202811d6d0a0f742023def783a307a986912e018202811d6d01920d8043ca89b5239253284e42018202811d6c0b7a86d7375468fac667a0a527016c29508e458543d8aa4df2abee7883018302821d6d0139601a2efabe717e604cbb4894018302821d6d02247f7a7b6594320649aa03aba1018302821d7fffffffffffffffffffffffffffffffffffffff73c0c716a594e00d54e3c4cbc9018302821d7ffffffffffffffffffffffffffffffffffffffdc7b88c420e53a9890533129f6f01830290911d7fffffffffffffffffffffffffffffffffffffff465fda27eb4d63ded474e5f832019091027ffffffffffffffff5f6af8f7b3396644f18e157960000000000000000000000000105711340daa0d5f769dba1915cef59f0815a5506027d0267a36c0c95b3975ab3ee5b203a7614a3f75373f047d803ae7b6687f2b393909302929092017d57115e47018c7177eebf7cd370a3356a1b7863008a5ae8028c72b88642840160ae1d92915050565b60007ffffffffffffffffffffffffffffffffffffffffffffffffdb731c958f34d94c1821361311757506000919050565b680755bf798b4a1bf1e58212613189576040517f08c379a000000000000000000000000000000000000000000000000000000000815260206004820152600c60248201527f4558505f4f564552464c4f5700000000000000000000000000000000000000006044820152606401610661565b6503782dace9d9604e83901b059150600060606bb17217f7d1cf79abc9e3b39884821b056b80000000000000000000000001901d6bb17217f7d1cf79abc9e3b39881029093037fffffffffffffffffffffffffffffffffffffffdbf3ccf1604d263450f02a550481018102606090811d6d0277594991cfc85f6e2461837cd9018202811d7fffffffffffffffffffffffffffffffffffffe5adedaa1cb095af9e4da10e363c018202811d6db1bbb201f443cf962f1a1d3db4a5018202811d7ffffffffffffffffffffffffffffffffffffd38dc772608b0ae56cce01296c0eb018202811d6e05180bb14799ab47a8a8cb2a527d57016d02d16720577bd19bf614176fe9ea6c10fe68e7fd37d0007b713f765084018402831d9081019084017ffffffffffffffffffffffffffffffffffffffe2c69812cf03b0763fd454a8f7e010290911d6e0587f503bb6ea29d25fcb7401964500190910279d835ebba824c98fb31b83b2ca45c000000000000000000000000010574029d9dc38563c32e5c2f6dc192ee70ef65f9978af30260c3939093039290921c92915050565b80516060908067ffffffffffffffff8111156133435761334361482a565b60405190808252806020026020018201604052801561338857816020015b60408051808201909152606080825260208201528152602001906001900390816133615790505b50915060005b8181101561340a5760405180604001604052808583815181106133b3576133b3615369565b602002602001015181526020016133e28684815181106133d5576133d5615369565b60200260200101516137dd565b8152508382815181106133f7576133f7615369565b602090810291909101015260010161338e565b5050919050565b606080604051905082518060011b603f8101601f1916830160405280835250602084016020830160005b83811015613469578060011b82018184015160001a8060041c8253600f81166001830153505060010161343b565b509295945050505050565b60606000806000613484856137f0565b91945092509050600081600181111561349f5761349f6153dd565b1461352c576040517f08c379a000000000000000000000000000000000000000000000000000000000815260206004820152603960248201527f524c505265616465723a206465636f646564206974656d207479706520666f7260448201527f206279746573206973206e6f7420612064617461206974656d000000000000006064820152608401610661565b6135368284615255565b8551146135c5576040517f08c379a000000000000000000000000000000000000000000000000000000000815260206004820152603460248201527f524c505265616465723a2062797465732076616c756520636f6e7461696e732060448201527f616e20696e76616c69642072656d61696e6465720000000000000000000000006064820152608401610661565b6123ad8560200151848461425d565b606060208260000151106135f0576135eb82613474565b6110b2565b6110b2826142f1565b60606110b261361883602001516000815181106127d6576127d6615369565b613411565b60608251821061363c57506040805160208101909152600081526110b2565b6122b3838384865161364e9190614f5b565b614307565b6000808251845110613666578251613669565b83515b90505b80821080156136f0575082828151811061368857613688615369565b602001015160f81c60f81b7effffffffffffffffffffffffffffffffffffffffffffffffffffffffffffff19168483815181106136c7576136c7615369565b01602001517fff0000000000000000000000000000000000000000000000000000000000000016145b156137005781600101915061366c565b5092915050565b6000808211613772576040517f08c379a000000000000000000000000000000000000000000000000000000000815260206004820152600960248201527f554e444546494e454400000000000000000000000000000000000000000000006044820152606401610661565b5060016fffffffffffffffffffffffffffffffff821160071b82811c67ffffffffffffffff1060061b1782811c63ffffffff1060051b1782811c61ffff1060041b1782811c60ff10600390811b90911783811c600f1060021b1783811c909110821b1791821c111790565b60606110b26137eb836144df565b6145c8565b6000806000808460000151116138ae576040517f08c379a000000000000000000000000000000000000000000000000000000000815260206004820152604a60248201527f524c505265616465723a206c656e677468206f6620616e20524c50206974656d60448201527f206d7573742062652067726561746572207468616e207a65726f20746f20626560648201527f206465636f6461626c6500000000000000000000000000000000000000000000608482015260a401610661565b6020840151805160001a607f81116138d3576000600160009450945094505050614256565b60b78111613ae15760006138e8608083614f5b565b9050808760000151116139a3576040517f08c379a000000000000000000000000000000000000000000000000000000000815260206004820152604e60248201527f524c505265616465723a206c656e677468206f6620636f6e74656e74206d757360448201527f742062652067726561746572207468616e20737472696e67206c656e6774682060648201527f2873686f727420737472696e6729000000000000000000000000000000000000608482015260a401610661565b6001838101517fff00000000000000000000000000000000000000000000000000000000000000169082141580613a1c57507f80000000000000000000000000000000000000000000000000000000000000007fff00000000000000000000000000000000000000000000000000000000000000821610155b613ace576040517f08c379a000000000000000000000000000000000000000000000000000000000815260206004820152604d60248201527f524c505265616465723a20696e76616c6964207072656669782c2073696e676c60448201527f652062797465203c203078383020617265206e6f74207072656669786564202860648201527f73686f727420737472696e672900000000000000000000000000000000000000608482015260a401610661565b5060019550935060009250614256915050565b60bf8111613e2f576000613af660b783614f5b565b905080876000015111613bb1576040517f08c379a000000000000000000000000000000000000000000000000000000000815260206004820152605160248201527f524c505265616465723a206c656e677468206f6620636f6e74656e74206d757360448201527f74206265203e207468616e206c656e677468206f6620737472696e67206c656e60648201527f67746820286c6f6e6720737472696e6729000000000000000000000000000000608482015260a401610661565b60018301517fff00000000000000000000000000000000000000000000000000000000000000166000819003613c8f576040517f08c379a000000000000000000000000000000000000000000000000000000000815260206004820152604a60248201527f524c505265616465723a206c656e677468206f6620636f6e74656e74206d757360448201527f74206e6f74206861766520616e79206c656164696e67207a65726f7320286c6f60648201527f6e6720737472696e672900000000000000000000000000000000000000000000608482015260a401610661565b600184015160088302610100031c60378111613d53576040517f08c379a000000000000000000000000000000000000000000000000000000000815260206004820152604860248201527f524c505265616465723a206c656e677468206f6620636f6e74656e74206d757360448201527f742062652067726561746572207468616e20353520627974657320286c6f6e6760648201527f20737472696e6729000000000000000000000000000000000000000000000000608482015260a401610661565b613d5d8184615255565b895111613e12576040517f08c379a000000000000000000000000000000000000000000000000000000000815260206004820152604c60248201527f524c505265616465723a206c656e677468206f6620636f6e74656e74206d757360448201527f742062652067726561746572207468616e20746f74616c206c656e677468202860648201527f6c6f6e6720737472696e67290000000000000000000000000000000000000000608482015260a401610661565b613e1d836001615255565b97509550600094506142569350505050565b60f78111613f10576000613e4460c083614f5b565b905080876000015111613eff576040517f08c379a000000000000000000000000000000000000000000000000000000000815260206004820152604a60248201527f524c505265616465723a206c656e677468206f6620636f6e74656e74206d757360448201527f742062652067726561746572207468616e206c697374206c656e67746820287360648201527f686f7274206c6973742900000000000000000000000000000000000000000000608482015260a401610661565b600195509350849250614256915050565b6000613f1d60f783614f5b565b905080876000015111613fd8576040517f08c379a000000000000000000000000000000000000000000000000000000000815260206004820152604d60248201527f524c505265616465723a206c656e677468206f6620636f6e74656e74206d757360448201527f74206265203e207468616e206c656e677468206f66206c697374206c656e677460648201527f6820286c6f6e67206c6973742900000000000000000000000000000000000000608482015260a401610661565b60018301517fff000000000000000000000000000000000000000000000000000000000000001660008190036140b6576040517f08c379a000000000000000000000000000000000000000000000000000000000815260206004820152604860248201527f524c505265616465723a206c656e677468206f6620636f6e74656e74206d757360448201527f74206e6f74206861766520616e79206c656164696e67207a65726f7320286c6f60648201527f6e67206c69737429000000000000000000000000000000000000000000000000608482015260a401610661565b600184015160088302610100031c6037811161417a576040517f08c379a000000000000000000000000000000000000000000000000000000000815260206004820152604660248201527f524c505265616465723a206c656e677468206f6620636f6e74656e74206d757360448201527f742062652067726561746572207468616e20353520627974657320286c6f6e6760648201527f206c697374290000000000000000000000000000000000000000000000000000608482015260a401610661565b6141848184615255565b895111614239576040517f08c379a000000000000000000000000000000000000000000000000000000000815260206004820152604a60248201527f524c505265616465723a206c656e677468206f6620636f6e74656e74206d757360448201527f742062652067726561746572207468616e20746f74616c206c656e677468202860648201527f6c6f6e67206c6973742900000000000000000000000000000000000000000000608482015260a401610661565b614244836001615255565b97509550600194506142569350505050565b9193909250565b60608167ffffffffffffffff8111156142785761427861482a565b6040519080825280601f01601f1916602001820160405280156142a2576020820181803683370190505b50905081156122b35760006142b78486615255565b90506020820160005b848110156142d85782810151828201526020016142c0565b848111156142e7576000858301525b5050509392505050565b60606110b282602001516000846000015161425d565b60608182601f011015614376576040517f08c379a000000000000000000000000000000000000000000000000000000000815260206004820152600e60248201527f736c6963655f6f766572666c6f770000000000000000000000000000000000006044820152606401610661565b8282840110156143e2576040517f08c379a000000000000000000000000000000000000000000000000000000000815260206004820152600e60248201527f736c6963655f6f766572666c6f770000000000000000000000000000000000006044820152606401610661565b8183018451101561444f576040517f08c379a000000000000000000000000000000000000000000000000000000000815260206004820152601160248201527f736c6963655f6f75744f66426f756e64730000000000000000000000000000006044820152606401610661565b60608215801561446e57604051915060008252602082016040526144d6565b6040519150601f8416801560200281840101858101878315602002848b0101015b818310156144a757805183526020928301920161448f565b5050858452601f017fffffffffffffffffffffffffffffffffffffffffffffffffffffffffffffffe016604052505b50949350505050565b604080518082019091526000808252602082015260008251116145aa576040517f08c379a000000000000000000000000000000000000000000000000000000000815260206004820152604a60248201527f524c505265616465723a206c656e677468206f6620616e20524c50206974656d60448201527f206d7573742062652067726561746572207468616e207a65726f20746f20626560648201527f206465636f6461626c6500000000000000000000000000000000000000000000608482015260a401610661565b50604080518082019091528151815260209182019181019190915290565b606060008060006145d8856137f0565b9194509250905060018160018111156145f3576145f36153dd565b14614680576040517f08c379a000000000000000000000000000000000000000000000000000000000815260206004820152603860248201527f524c505265616465723a206465636f646564206974656d207479706520666f7260448201527f206c697374206973206e6f742061206c697374206974656d00000000000000006064820152608401610661565b845161468c8385615255565b14614719576040517f08c379a000000000000000000000000000000000000000000000000000000000815260206004820152603260248201527f524c505265616465723a206c697374206974656d2068617320616e20696e766160448201527f6c696420646174612072656d61696e64657200000000000000000000000000006064820152608401610661565b604080516020808252610420820190925290816020015b60408051808201909152600080825260208201528152602001906001900390816147305790505093506000835b865181101561481e576000806147a36040518060400160405280858c600001516147879190614f5b565b8152602001858c6020015161479c9190615255565b90526137f0565b5091509150604051806040016040528083836147bf9190615255565b8152602001848b602001516147d49190615255565b8152508885815181106147e9576147e9615369565b60209081029190910101526147ff600185615255565b935061480b8183615255565b6148159084615255565b9250505061475d565b50845250919392505050565b7f4e487b7100000000000000000000000000000000000000000000000000000000600052604160045260246000fd5b604051601f82017fffffffffffffffffffffffffffffffffffffffffffffffffffffffffffffffe016810167ffffffffffffffff811182821017156148a0576148a061482a565b604052919050565b73ffffffffffffffffffffffffffffffffffffffff811681146148ca57600080fd5b50565b600082601f8301126148de57600080fd5b813567ffffffffffffffff8111156148f8576148f861482a565b61492960207fffffffffffffffffffffffffffffffffffffffffffffffffffffffffffffffe0601f84011601614859565b81815284602083860101111561493e57600080fd5b816020850160208301376000918101602001919091529392505050565b600060c0828403121561496d57600080fd5b60405160c0810167ffffffffffffffff82821081831117156149915761499161482a565b8160405282935084358352602085013591506149ac826148a8565b816020840152604085013591506149c2826148a8565b816040840152606085013560608401526080850135608084015260a08501359150808211156149f057600080fd5b506149fd858286016148cd565b60a0830152505092915050565b600080600080600085870360e0811215614a2357600080fd5b863567ffffffffffffffff80821115614a3b57600080fd5b614a478a838b0161495b565b97506020890135965060807fffffffffffffffffffffffffffffffffffffffffffffffffffffffffffffffc084011215614a8057600080fd5b60408901955060c0890135925080831115614a9a57600080fd5b828901925089601f840112614aae57600080fd5b8235915080821115614abf57600080fd5b508860208260051b8401011115614ad557600080fd5b959894975092955050506020019190565b60005b83811015614b01578181015183820152602001614ae9565b83811115614b10576000848401525b50505050565b60008151808452614b2e816020860160208601614ae6565b601f017fffffffffffffffffffffffffffffffffffffffffffffffffffffffffffffffe0169290920160200192915050565b6020815260006122b36020830184614b16565b600060208284031215614b8557600080fd5b5035919050565b600060208284031215614b9e57600080fd5b813567ffffffffffffffff811115614bb557600080fd5b614bc18482850161495b565b949350505050565b803567ffffffffffffffff81168114614be157600080fd5b919050565b600060208284031215614bf857600080fd5b6122b382614bc9565b600060208284031215614c1357600080fd5b81356122b3816148a8565b80151581146148ca57600080fd5b600080600080600060a08688031215614c4457600080fd5b8535614c4f816148a8565b945060208601359350614c6460408701614bc9565b92506060860135614c7481614c1e565b9150608086013567ffffffffffffffff811115614c9057600080fd5b614c9c888289016148cd565b9150509295509295909350565b8581528460208201527fffffffffffffffff0000000000000000000000000000000000000000000000008460c01b16604082015282151560f81b604882015260008251614cfd816049850160208701614ae6565b919091016049019695505050505050565b600060208284031215614d2057600080fd5b81516122b3816148a8565b80516fffffffffffffffffffffffffffffffff81168114614be157600080fd5b600060608284031215614d5d57600080fd5b6040516060810181811067ffffffffffffffff82111715614d8057614d8061482a565b60405282518152614d9360208401614d2b565b6020820152614da460408401614d2b565b60408201529392505050565b600060808284031215614dc257600080fd5b6040516080810181811067ffffffffffffffff82111715614de557614de561482a565b8060405250823581526020830135602082015260408301356040820152606083013560608201528091505092915050565b600067ffffffffffffffff80841115614e3157614e3161482a565b8360051b6020614e42818301614859565b868152918501918181019036841115614e5a57600080fd5b865b84811015614e8e57803586811115614e745760008081fd5b614e8036828b016148cd565b845250918301918301614e5c565b50979650505050505050565b600060208284031215614eac57600080fd5b81516122b381614c1e565b600060208284031215614ec957600080fd5b5051919050565b7f4e487b7100000000000000000000000000000000000000000000000000000000600052601160045260246000fd5b600067ffffffffffffffff80831681851681830481118215151615614f2657614f26614ed0565b02949350505050565b600067ffffffffffffffff808316818516808303821115614f5257614f52614ed0565b01949350505050565b600082821015614f6d57614f6d614ed0565b500390565b7f4e487b7100000000000000000000000000000000000000000000000000000000600052601260045260246000fd5b600082614fb057614fb0614f72565b7fffffffffffffffffffffffffffffffffffffffffffffffffffffffffffffffff83147f80000000000000000000000000000000000000000000000000000000000000008314161561500457615004614ed0565b500590565b6000808312837f80000000000000000000000000000000000000000000000000000000000000000183128115161561504357615043614ed0565b837f7fffffffffffffffffffffffffffffffffffffffffffffffffffffffffffffff01831381161561507757615077614ed0565b50500390565b60007f7fffffffffffffffffffffffffffffffffffffffffffffffffffffffffffffff6000841360008413858304851182821616156150be576150be614ed0565b7f800000000000000000000000000000000000000000000000000000000000000060008712868205881281841616156150f9576150f9614ed0565b6000871292508782058712848416161561511557615115614ed0565b8785058712818416161561512b5761512b614ed0565b505050929093029392505050565b6000808212827f7fffffffffffffffffffffffffffffffffffffffffffffffffffffffffffffff0384138115161561517357615173614ed0565b827f80000000000000000000000000000000000000000000000000000000000000000384128116156151a7576151a7614ed0565b50500190565b6000817fffffffffffffffffffffffffffffffffffffffffffffffffffffffffffffffff04831182151516156151e5576151e5614ed0565b500290565b6000826151f9576151f9614f72565b500490565b868152600073ffffffffffffffffffffffffffffffffffffffff808816602084015280871660408401525084606083015283608083015260c060a083015261524960c0830184614b16565b98975050505050505050565b6000821982111561526857615268614ed0565b500190565b805163ffffffff81168114614be157600080fd5b805160ff81168114614be157600080fd5b600060c082840312156152a457600080fd5b60405160c0810181811067ffffffffffffffff821117156152c7576152c761482a565b6040526152d38361526d565b81526152e160208401615281565b60208201526152f260408401615281565b60408201526153036060840161526d565b60608201526153146080840161526d565b608082015261532560a08401614d2b565b60a08201529392505050565b60007fffffffffffffffffffffffffffffffffffffffffffffffffffffffffffffffff820361536257615362614ed0565b5060010190565b7f4e487b7100000000000000000000000000000000000000000000000000000000600052603260045260246000fd5b600060ff8316806153ab576153ab614f72565b8060ff84160691505092915050565b600060ff821660ff8416808210156153d4576153d4614ed0565b90039392505050565b7f4e487b7100000000000000000000000000000000000000000000000000000000600052602160045260246000fdfea164736f6c634300080f000a",
  "devdoc": {
    "version": 1,
    "kind": "dev",
    "methods": {
      "GUARDIAN()": {},
      "constructor": {
        "params": {
          "_l2Oracle": "Address of the L2OutputOracle contract.",
          "_systemConfig": "Address of the SystemConfig contract."
        }
      },
      "depositTransaction(address,uint256,uint64,bool,bytes)": {
        "params": {
          "_data": "Data to trigger the recipient with.",
          "_gasLimit": "Amount of L2 gas to purchase by burning gas on L1.",
          "_isCreation": "Whether or not the transaction is a contract creation.",
          "_to": "Target address on L2.",
          "_value": "ETH value to send to the recipient."
        }
      },
      "finalizeWithdrawalTransaction((uint256,address,address,uint256,uint256,bytes))": {
        "params": {
          "_tx": "Withdrawal transaction to finalize."
        }
      },
      "guardian()": {},
      "initialize(address)": {
        "params": {
          "_superchainConfig": "Address of the SuperchainConfig contract."
        }
      },
      "isOutputFinalized(uint256)": {
        "params": {
          "_l2OutputIndex": "Index of the L2 output to check."
        },
        "returns": {
          "_0": "Whether or not the output is finalized."
        }
      },
      "minimumGasLimit(uint64)": {
        "params": {
          "_byteCount": "Number of bytes in the calldata."
        },
        "returns": {
          "_0": "The minimum gas limit for a deposit."
        }
      },
      "proveWithdrawalTransaction((uint256,address,address,uint256,uint256,bytes),uint256,(bytes32,bytes32,bytes32,bytes32),bytes[])": {
        "params": {
          "_l2OutputIndex": "L2 output index to prove against.",
          "_outputRootProof": "Inclusion proof of the L2ToL1MessagePasser contract's storage root.",
          "_tx": "Withdrawal transaction to finalize.",
          "_withdrawalProof": "Inclusion proof of the withdrawal in L2ToL1MessagePasser contract."
        }
      }
    },
    "events": {
      "TransactionDeposited(address,address,uint256,bytes)": {
        "params": {
          "from": "Address that triggered the deposit transaction.",
          "opaqueData": "ABI encoded deposit data to be parsed off-chain.",
          "to": "Address that the deposit transaction is directed to.",
          "version": "Version of this deposit transaction event."
        }
      },
      "WithdrawalFinalized(bytes32,bool)": {
        "params": {
          "success": "Whether the withdrawal transaction was successful.",
          "withdrawalHash": "Hash of the withdrawal transaction."
        }
      },
      "WithdrawalProven(bytes32,address,address)": {
        "params": {
          "from": "Address that triggered the withdrawal transaction.",
          "to": "Address that the withdrawal transaction is directed to.",
          "withdrawalHash": "Hash of the withdrawal transaction."
        }
      }
    }
  },
  "numDeployments": 1,
  "solcInputHash": "0x0000000000000000000000000000000000000000000000000000000000000000",
  "storageLayout": {
    "storage": [
      {
        "astId": 45954,
        "contract": "src/L1/OptimismPortal.sol:OptimismPortal",
        "label": "_initialized",
        "offset": 0,
        "slot": "0",
        "type": "t_uint8"
      },
      {
        "astId": 45957,
        "contract": "src/L1/OptimismPortal.sol:OptimismPortal",
        "label": "_initializing",
        "offset": 1,
        "slot": "0",
        "type": "t_bool"
      },
      {
        "astId": 76640,
        "contract": "src/L1/OptimismPortal.sol:OptimismPortal",
        "label": "params",
        "offset": 0,
        "slot": "1",
        "type": "t_struct(ResourceParams)76623_storage"
      },
      {
        "astId": 76645,
        "contract": "src/L1/OptimismPortal.sol:OptimismPortal",
        "label": "__gap",
        "offset": 0,
        "slot": "2",
        "type": "t_array(t_uint256)48_storage"
      },
      {
        "astId": 75723,
        "contract": "src/L1/OptimismPortal.sol:OptimismPortal",
        "label": "l2Sender",
        "offset": 0,
        "slot": "50",
        "type": "t_address"
      },
      {
        "astId": 75728,
        "contract": "src/L1/OptimismPortal.sol:OptimismPortal",
        "label": "finalizedWithdrawals",
        "offset": 0,
        "slot": "51",
        "type": "t_mapping(t_bytes32,t_bool)"
      },
      {
        "astId": 75734,
        "contract": "src/L1/OptimismPortal.sol:OptimismPortal",
        "label": "provenWithdrawals",
        "offset": 0,
        "slot": "52",
        "type": "t_mapping(t_bytes32,t_struct(ProvenWithdrawal)75704_storage)"
      },
      {
        "astId": 75737,
        "contract": "src/L1/OptimismPortal.sol:OptimismPortal",
        "label": "spacer_53_0_1",
        "offset": 0,
        "slot": "53",
        "type": "t_bool"
      },
      {
        "astId": 75741,
        "contract": "src/L1/OptimismPortal.sol:OptimismPortal",
        "label": "superchainConfig",
        "offset": 1,
        "slot": "53",
        "type": "t_contract(SuperchainConfig)77170"
      }
    ],
    "types": {
      "t_address": {
        "encoding": "inplace",
        "label": "address",
        "numberOfBytes": "20"
      },
      "t_array(t_uint256)48_storage": {
        "encoding": "inplace",
        "label": "uint256[48]",
        "numberOfBytes": "1536",
        "base": "t_uint256"
      },
      "t_bool": {
        "encoding": "inplace",
        "label": "bool",
        "numberOfBytes": "1"
      },
      "t_bytes32": {
        "encoding": "inplace",
        "label": "bytes32",
        "numberOfBytes": "32"
      },
      "t_contract(SuperchainConfig)77170": {
        "encoding": "inplace",
        "label": "contract SuperchainConfig",
        "numberOfBytes": "20"
      },
      "t_mapping(t_bytes32,t_bool)": {
        "encoding": "mapping",
        "key": "t_bytes32",
        "label": "mapping(bytes32 => bool)",
        "numberOfBytes": "32",
        "value": "t_bool"
      },
      "t_mapping(t_bytes32,t_struct(ProvenWithdrawal)75704_storage)": {
        "encoding": "mapping",
        "key": "t_bytes32",
        "label": "mapping(bytes32 => struct OptimismPortal.ProvenWithdrawal)",
        "numberOfBytes": "32",
        "value": "t_struct(ProvenWithdrawal)75704_storage"
      },
      "t_struct(ProvenWithdrawal)75704_storage": {
        "encoding": "inplace",
        "label": "struct OptimismPortal.ProvenWithdrawal",
        "numberOfBytes": "64",
        "members": [
          {
            "astId": 75699,
            "contract": "src/L1/OptimismPortal.sol:OptimismPortal",
            "label": "outputRoot",
            "offset": 0,
            "slot": "0",
            "type": "t_bytes32"
          },
          {
            "astId": 75701,
            "contract": "src/L1/OptimismPortal.sol:OptimismPortal",
            "label": "timestamp",
            "offset": 0,
            "slot": "1",
            "type": "t_uint128"
          },
          {
            "astId": 75703,
            "contract": "src/L1/OptimismPortal.sol:OptimismPortal",
            "label": "l2OutputIndex",
            "offset": 16,
            "slot": "1",
            "type": "t_uint128"
          }
        ]
      },
      "t_struct(ResourceParams)76623_storage": {
        "encoding": "inplace",
        "label": "struct ResourceMetering.ResourceParams",
        "numberOfBytes": "32",
        "members": [
          {
            "astId": 76618,
            "contract": "src/L1/OptimismPortal.sol:OptimismPortal",
            "label": "prevBaseFee",
            "offset": 0,
            "slot": "0",
            "type": "t_uint128"
          },
          {
            "astId": 76620,
            "contract": "src/L1/OptimismPortal.sol:OptimismPortal",
            "label": "prevBoughtGas",
            "offset": 16,
            "slot": "0",
            "type": "t_uint64"
          },
          {
            "astId": 76622,
            "contract": "src/L1/OptimismPortal.sol:OptimismPortal",
            "label": "prevBlockNum",
            "offset": 24,
            "slot": "0",
            "type": "t_uint64"
          }
        ]
      },
      "t_uint128": {
        "encoding": "inplace",
        "label": "uint128",
        "numberOfBytes": "16"
      },
      "t_uint256": {
        "encoding": "inplace",
        "label": "uint256",
        "numberOfBytes": "32"
      },
      "t_uint64": {
        "encoding": "inplace",
        "label": "uint64",
        "numberOfBytes": "8"
      },
      "t_uint8": {
        "encoding": "inplace",
        "label": "uint8",
        "numberOfBytes": "1"
      }
    }
  },
  "transactionHash": "0x4e32e14ae9c68b6c73218dbc5d64e9a5527213375e21cb5d171faadbdef68712",
  "userdoc": {
    "version": 1,
    "kind": "user",
    "methods": {
      "GUARDIAN()": {
        "notice": "Getter function for the address of the guardian. This will be removed in the future, use `SuperchainConfig.guardian()` instead.Address of the guardian."
      },
      "L2_ORACLE()": {
        "notice": "Address of the L2OutputOracle contract. This will be removed in the         future, use `l2Oracle` instead."
      },
      "SYSTEM_CONFIG()": {
        "notice": "Address of the SystemConfig contract. This will be removed in the         future, use `systemConfig` instead."
      },
      "constructor": {
        "notice": "Constructs the OptimismPortal contract."
      },
      "depositTransaction(address,uint256,uint64,bool,bytes)": {
        "notice": "Accepts deposits of ETH and data, and emits a TransactionDeposited event for use in         deriving deposit transactions. Note that if a deposit is made by a contract, its         address will be aliased when retrieved using `tx.origin` or `msg.sender`. Consider         using the CrossDomainMessenger contracts for a simpler developer experience."
      },
      "donateETH()": {
        "notice": "Accepts ETH value without triggering a deposit to L2.         This function mainly exists for the sake of the migration between the legacy         Optimism system and Bedrock."
      },
      "finalizeWithdrawalTransaction((uint256,address,address,uint256,uint256,bytes))": {
        "notice": "Finalizes a withdrawal transaction."
      },
      "finalizedWithdrawals(bytes32)": {
        "notice": "A list of withdrawal hashes which have been successfully finalized."
      },
      "guardian()": {
        "notice": "Getter function for the address of the guardian. This will be removed in the future, use `SuperchainConfig.guardian()` instead.Address of the guardian."
      },
      "initialize(address)": {
        "notice": "Initializer."
      },
      "isOutputFinalized(uint256)": {
        "notice": "Determine if a given output is finalized.         Reverts if the call to L2_ORACLE.getL2Output reverts.         Returns a boolean otherwise."
      },
      "l2Oracle()": {
        "notice": "Getter function for the address of the L2OutputOracle on this chain.Address of the L2OutputOracle on this chain."
      },
      "l2Sender()": {
        "notice": "Address of the L2 account which initiated a withdrawal in this transaction.         If the of this variable is the default L2 sender address, then we are NOT inside of         a call to finalizeWithdrawalTransaction."
      },
      "minimumGasLimit(uint64)": {
        "notice": "Computes the minimum gas limit for a deposit.         The minimum gas limit linearly increases based on the size of the calldata.         This is to prevent users from creating L2 resource usage without paying for it.         This function can be used when interacting with the portal to ensure forwards         compatibility."
      },
      "params()": {
        "notice": "EIP-1559 style gas parameters."
      },
      "paused()": {
        "notice": "Getter for the current paused status."
      },
      "proveWithdrawalTransaction((uint256,address,address,uint256,uint256,bytes),uint256,(bytes32,bytes32,bytes32,bytes32),bytes[])": {
        "notice": "Proves a withdrawal transaction."
      },
      "provenWithdrawals(bytes32)": {
        "notice": "A mapping of withdrawal hashes to `ProvenWithdrawal` data."
      },
      "superchainConfig()": {
        "notice": "The address of the Superchain Config contract."
      },
      "systemConfig()": {
        "notice": "Getter function for the address of the SystemConfig on this chain.Address of the SystemConfig on this chain."
      },
      "version()": {
        "notice": "Semantic version."
      }
    },
    "events": {
      "TransactionDeposited(address,address,uint256,bytes)": {
        "notice": "Emitted when a transaction is deposited from L1 to L2.         The parameters of this event are read by the rollup node and used to derive deposit         transactions on L2."
      },
      "WithdrawalFinalized(bytes32,bool)": {
        "notice": "Emitted when a withdrawal transaction is finalized."
      },
      "WithdrawalProven(bytes32,address,address)": {
        "notice": "Emitted when a withdrawal transaction is proven."
      }
    },
    "notice": "The OptimismPortal is a low-level contract responsible for passing messages between L1         and L2. Messages sent directly to the OptimismPortal have no form of replayability.         Users are encouraged to use the L1CrossDomainMessenger for a higher-level interface."
  }
}